:020000040800F2
:10000000C81D002045010008A90D0008650B000867
:10001000A50D0008EB0100085523000800000000B2
:100020000000000000000000000000005113000864
:100030002D09000800000000E10F0008A51C0008C1
:100040005F0100085F0100085F0100085F01000810
:100050005F0100085F0100085F0100085F01000800
:100060005F0100085F0100085F0100085F010008F0
:100070005F0100085F0100085F0100085F010008E0
:100080005F0100085F0100085F0100085F010008D0
:10009000C92200085F0100085F0100085F01000835
:1000A0005F0100085F0100085F0100085F010008B0
:1000B0005F0100085F0100085F0100085F010008A0
:1000C0005F0100085F0100085F0100085F01000890
:1000D0005F010008A11D0008291E00085F0100083B
:1000E0005F0100085F010008C72000085F010008E9
:1000F0005F0100085F0100085F0100085F01000860
:100100005F0100085F0100085F0100085F0100084F
:100110005F0100085F0100085F0100085F0100083F
:100120005F0100085F0100085F0100085F0100082F
:10013000DFF80CD000F018F800480047C12700088D
:10014000C81D00200648804706480047FEE7FEE736
:10015000FEE7FEE7FEE7FEE7FEE7FEE7FEE7FEE777
:10016000411D000831010008064C074D06E0E0681B
:1001700040F0010394E8070098471034AC42F6D3EE
:10018000FFF7DAFF98290008B829000870B58D1824
:1001900010F8014B14F0030201D110F8012B2311C8
:1001A00006D110F8013B03E010F8016B01F8016B78
:1001B000521EF9D1ABB110F8012B04F00C048A1ACD
:1001C0000C2C03D0A2EB84129B1C08E010F8014B0E
:1001D000A2EB0422F8E712F8014B01F8014B5B1E79
:1001E000F9D5A942D4D3002070BD00BFFEE7014677
:1001F000CAB20B1243EA02207047000008B5002083
:10020000009022E19748008800F00F00964908709E
:100210000846007800287CD19448006894490880FA
:100220000846008800F03000924908809048008815
:1002300000F440508E4908808C4909684BF6BF7223
:1002400001EA020080F4005080F0200040F40041F8
:1002500041F08001854A11608248008800F010005A
:1002600090BB1046006848F60F71084011460860C0
:1002700000F07AFC7D4909684BF6BF7201EA020082
:100280007B49098801F4805109B180F48050784994
:10029000098801F4005109B180F4005075490988BA
:1002A00001F0100109B180F010007249098801F0D5
:1002B000200109B180F0200081B241F4004141F0F9
:1002C00080016A4A116008BDFFE76848006880B293
:1002D0000090BDF8000000F40060B0B3634800680F
:1002E000C0F30E0048F68F7108406049086001F0C5
:1002F000B1F95E4909684BF6BF7201EA02005C4938
:10030000098801F4805109B180F480505849098866
:1003100000E056E001F4005109B180F40050554965
:10032000098801F0100109B180F0100051490988D5
:1003300001F0200109B180F0200081B241F40041B8
:1003400041F08001494A1160BDE7FFE7BDF80000B8
:1003500000F40040002878D044480068C0F30E0044
:1003600048F68F7108404149086000F0FDFD3F49A3
:1003700009684BF6BF7201EA02003D49098801F4A1
:10038000805109B180F480503949098801F4005145
:1003900009B180F400503749098801F0100109B112
:1003A00080F010003349098801F0200109B180F084
:1003B000200081B241F4004141F080012B4A1160DC
:1003C00081E7294800782C4901EB8000D0F8000C27
:1003D00080B20090BDF8000000F40040C0B1224897
:1003E000007801EB8000D0F8000CC0F30E0048F656
:1003F0008F7108401C4909781F4A02EB8101C1F83E
:10040000000C19490978491E1C4A52F821008047FE
:10041000BDF8000000F08000B8B11348007816491C
:1004200001EB8000D0F8000C48F60F7108400E492F
:100430000978114A02EB8101C1F8000C0A490978D8
:10044000491E0F4A52F8210080470848443000688E
:1004500080B20449088000F4004000287FF4D2AE46
:1004600000BF30E7A40B00208C0C0020005C004093
:10047000A00C0020A20C002000500040CC0B00205B
:10048000B00B00200B4A02EB8001D1F8001C01F4F4
:10049000804171B102EB8001D1F8001C48F68F72E7
:1004A00011404CF280021143024B03EB8002C2F870
:1004B000001C7047005000400B4A02EB8001D1F84D
:1004C000001C01F0400171B102EB8001D1F8001C69
:1004D00048F68F72114048F2C0021143024B03EB01
:1004E0008002C2F8001C704700500040084A02EB2E
:1004F0008001D1F8001C48F68F62114048F280025A
:100500001143034B03EB8002C2F8001C704700004C
:1005100000500040704770472DE9F04728480068B8
:1005200000F110052E8826480068077AD6B9042FF6
:1005300018D12448007801280FD1002122480068F2
:1005400080B2801C214A42F81010302020490880D7
:1005500000BF00201B49087003E0072710201C493A
:10056000088027E0AC88A64201D8042000E00220E1
:100570000746B44200D93446A0B2A96888478046ED
:10058000002000F0C5FA8146A2B24946404601F07B
:10059000E3FEA1B2002000F08FFF2888001B288016
:1005A0006888204468803020094908800002094991
:1005B000088000BF024909680F72BDE8F08700009B
:1005C000900C00208A0C0020505C0040006000402D
:1005D000A20C0020A00C00202DE9F0412848006862
:1005E00000F110042688A068C0B1BEB1A588B5424C
:1005F00000D93546A8B2A168884707462088401B25
:100600002080608828446080002000F05FFA8046E7
:10061000AAB24146384600F0CFFC00BF208850B156
:100620004FF44050174908800021084600F044FF6D
:100630003020154908802088A188884204DB0320E7
:100640000F490968087218E02088002804DD052099
:100650000B490968087210E0208870B90620084923
:100660000968087200210948006880B2801C084AA5
:1006700042F81010302004490880BDE8F0810000E5
:10068000900C0020A00C0020A20C0020505C004028
:10069000006000402DE9F84F9B480068457800272E
:1006A000BA46062D1BD198480068007800F07F00FC
:1006B000002813D1944909688878012803D1934907
:1006C0000968CF690AE0022803D1904909680F6AD6
:1006D00004E0032802D18D4909684F6A94E0002D97
:1006E00064D189480068408800285FD18648006846
:1006F000C08802285AD1844800680079002855D162
:1007000081480068007800F07F0028B97E480068C2
:10071000808808B97E4F77E07B480068007800F059
:100720007F00012810D1784909684879774909681C
:100730008A6900219047002866D173480068807A52
:10074000002861D0724F5FE06F480068007800F0C9
:100750007F00022858D16C480068407900F00F06ED
:1007600069480068407900F070096748006840797E
:1007700000F0800038B1674901EB8600D0F8000C2A
:1007800000F0300806E0634901EB8600D0F8000C69
:1007900000F4405860480078B04235D9B9F1000FF4
:1007A00032D1B8F1000F2FD0594F2DE0082D07D1CD
:1007B00055480068007800F07F0028BB574F23E0C1
:1007C0000A2D21D150480068007800F07F000128F0
:1007D0001AD14D480068807AB0B14B480068408813
:1007E00090B949480068007970B947480068C088E6
:1007F000012809D1444909684879444909688A6946
:100800000021904700B9464F57B13F480068A0F813
:1008100012A03D48006887610020B84700240FE01F
:10082000394A12685078394A126811698847044673
:10083000032C05D10920344909680872BDE8F88FF6
:1008400031480068008A4FF6FF71884204D10920C0
:100850002D4909680872F1E7022C03D02A48006884
:10086000008A20B90820284909680872E6E7264866
:100870000068007800F08000E0B323480068C0887A
:10088000009021480068008A0099884204D91E49D6
:1008900000980968088223E01B480068008A1A490A
:1008A0000968C98888421BDA17480068008A174916
:1008B000096891F82C10884203DA00201949087061
:1008C0000EE011480068008A1049096891F82C1060
:1008D00090FBF1F201FB120010B9012011490870E0
:1008E0000A48006890F82C10074800688182FFF7DA
:1008F00013FE07E0FFE703200349096808720003BD
:100900000949088000BF99E7900C0020940C002052
:10091000F518000800500040F40B0020791800087A
:10092000C91800088A0C0020A00C002070470000A5
:1009300010B500240F480078012819D140210E4835
:1009400001F0FCFC84B2002C0FDD2246C0210A48D5
:1009500001F002FD2146012000F0AEFD012000F073
:10096000D9FD00200549086002E000200149087017
:1009700010BD00009C0B002008190020A00B0020D7
:1009800010B50649032001F0C1FC84B2214603489A
:1009900001F09EFC032000F065FD10BD4819002009
:1009A0000149086070470000140401402DE9F0413E
:1009B000024600250026002000230024002791F88D
:1009C00003C00CF00F0591F803C00CF0100CBCF143
:1009D000000F03D091F802C04CEA050591F800C061
:1009E000BCF1000F31D0146800202BE04FF0010C57
:1009F0000CFA00F3B1F800C00CEA03069E4220D1C5
:100A000083004FF00F0C0CFA03F7BC4305FA03FC0C
:100A10004CEA040491F803C0BCF1280F06D14FF052
:100A2000010C0CFA00FCC2F814C00AE091F803C0F3
:100A3000BCF1480F05D14FF0010C0CFA00FCC2F8D4
:100A400010C0401C0828D1D31460B1F800C0BCF11C
:100A5000FF0F34DD546800202EE000F1080C4FF049
:100A6000010808FA0CF3B1F800C00CEA03069E4234
:100A700021D183004FF00F0C0CFA03F7BC4305FAA9
:100A800003FC4CEA040491F803C0BCF1280F05D123
:100A900000F1080C08FA0CF8C2F8148091F803C0B1
:100AA000BCF1480F07D100F1080C4FF0010808FA1B
:100AB0000CF8C2F81080401C0828CED35460BDE862
:100AC000F0814161704701617047000001460548AF
:100AD000006880B200EBC100001D034A32F810002C
:100AE00080B27047505C00400060004001460648FC
:100AF000006880B200EBC100801D044A32F810008B
:100B0000C0F3090070470000505C004000600040E6
:100B100001460548006880B200EBC100034A32F884
:100B2000100080B270470000505C00400060004040
:100B300070B50A480468001D0568001D0668344445
:100B400054B108220649204600F0FCF8042204496A
:100B50001031284600F0F6F870BD0000E8F7FF1FDE
:100B6000760B002000BFFEE710B518480068047A35
:100B7000022C01D0042C05D1FFF7CEFC13480068ED
:100B8000047A1CE0062C19D110480068407805282A
:100B90000ED10E480068007800F07F0040B90B4984
:100BA0000968C87800F0DEFB09490968086A8047CF
:100BB0000849096888688047082400E00824034938
:100BC00009680C7200F00EFA10BD0000900C0020B5
:100BD0009C0C0020940C002010B586B00446012126
:100BE00044F2040000F08EFA4FF40070ADF81400E7
:100BF00018208DF8170003208DF8160005A922484B
:100C0000FFF7D4FE4FF48060ADF8140004208DF897
:100C1000170005A91C48FFF7C9FE01940020ADF894
:100C20000800ADF80A00ADF80C00ADF810000C207B
:100C3000ADF80E0001A9154801F0D0F9002240F2EC
:100C40002771124801F0A4F9012240F225510F4802
:100C500001F09EF940210D4801F04CF901210B48AB
:100C600001F060F925208DF8000001208DF80100C9
:100C700007208DF8020001208DF80300684600F07F
:100C800095F806B010BD0000000801400038014092
:100C900010B586B004460121274800F023FA04204D
:100CA000ADF8140018208DF8170003208DF81600F9
:100CB00005A92248FFF77AFE0820ADF814000420A9
:100CC0008DF8170005A91D48FFF770FE019400205C
:100CD000ADF80800ADF80A00ADF80C00ADF8100052
:100CE0000C20ADF80E0001A9154801F077F900229B
:100CF00040F22771124801F04BF9012240F22551D0
:100D00000F4801F045F940210D4801F0F3F80121A9
:100D10000B4801F007F926208DF8000001208DF81E
:100D2000010008208DF8020001208DF803006846BC
:100D300000F03CF806B010BD0400020000080140BD
:100D40000044004030B50B46002100BF16E00A24E5
:100D5000B4EB107F05D9302404EB107403F8114074
:100D600005E0412404EB10740A3C03F81140000133
:100D700000254C00641C1D554C1CE1B29142E6DB81
:100D800030BD00000548817A19B10521044A11607F
:100D900002E00121024A116070470000A8190020FA
:100DA0007C0C002000BFFEE77047704770B5002143
:100DB00000230F22C47804B3154C246804F4E064C3
:100DC000C4F5E064210AC1F10403CA40447804FA7E
:100DD00003F184781440214309010E4C0678A15593
:100DE000047804F01F050124AC4005786D11AD00B6
:100DF00005F1E025C5F8004109E0047804F01F057D
:100E00000124AC40044D0678761145F8264070BDAB
:100E10000CED00E000E400E080E100E00249014365
:100E2000024A1160704700000000FA050CED00E076
:100E300070B5022647480068447846480068007844
:100E400000F07F00002844D1092C03D100F0D2FD2E
:100E500006465FE0052C14D13E480068C0787F2824
:100E60000BDC3C480068807838B93A4800688088D4
:100E700018B938480068807A08B1082565E000266E
:100E800048E0032C0ED133480068C078012807D110
:100E900030480068808818B900F0D0FD064639E077
:100EA000022637E0012C35D12A480068C078012895
:100EB0000DD128480068808848B926480068407AE3
:100EC00000F0200018B100F021FC064622E00226C6
:100ED00020E020480068007800F07F00012805D15C
:100EE0000B2C17D100F026FE064613E019480068C7
:100EF000007800F07F0002280BD1012C03D100F014
:100F000005FC064606E0032C04D100F0ABFD0646C6
:100F100000E002264EB1E0B20F4A126851698847DC
:100F20000646032E01D109250FE00EB108250CE07D
:100F3000062500210948006880B2801C084A42F852
:100F4000101030200749088000BF024909680D725F
:100F500070BD0000900C0020940C0020505C0040FC
:100F600000600040A20C002010B511480068047A0F
:100F7000022C01D0042C01D1082412E0032C01D052
:100F8000052C05D1FFF728FB09480068047A08E022
:100F9000072C05D107490968C8688047082400E084
:100FA0000824034909680C7200F01CF810BD000009
:100FB000900C0020940C0020F0B5561C7510074EC4
:100FC00006EB41042B4605E034F8047B20F8017B56
:100FD000401C5B1E002BF7D1F0BD000000600040FC
:100FE0007047000010B50D4890F82C10002000F05C
:100FF000F3F90B480068007A082805D14002094936
:10100000088010200849088005480068007A0928EF
:1010100001D1012010BD0020FCE70000F80B0020EA
:10102000900C0020A00C0020A20C002010B5012084
:1010300001F050F801240B48046000200A490880A0
:1010400008460088074908600020091D08604FF421
:10105000E0500549088008460088024908600020E1
:1010600010BD0000405C00409A0C002070B50346A3
:101070001446002200209A6800BF11E0DD681E6857
:101080002E44551C2A46AE4200D8DA685D68954267
:1010900000D107E011F8015B9E6835709A60401C32
:1010A000A042EBD300BF70BDF0B5034600200EE0B8
:1010B0005C68651C5D6027780546401C4F55DC6800
:1010C0001D682C445D68AC4201D8DC685C605C68DB
:1010D0009D68AC4204D0904202D21C688442E7D89A
:1010E000F0BD000029B1064AD2690243044BDA611F
:1010F00004E0034AD2698243014BDA617047000081
:101100000010024029B1064A92690243044B9A61D9
:1011100004E0034A92698243014B9A6170470000E0
:101120000010024030B500210022002400232D4D84
:101130006D6805F00C0121B1042905D0082923D1DF
:1011400005E0294D056022E0274D05601FE0254D93
:101150006D6805F47012234D6D6805F48034022526
:1011600005EB92421CB9214D554305600BE01D4D26
:101170006D6805F400351DB11C4D5543056002E056
:10118000194D5543056002E0174D056000BF00BFD3
:10119000144D6D6805F0F0010909154D6B5C05688B
:1011A000DD4045600F4D6D6805F4E061090A104DA2
:1011B0006B5C4568DD4085600A4D6D6805F46051E3
:1011C000C90A0B4D6B5C4568DD40C560054D6D6817
:1011D00005F44041890B074D6B5CC568B5FBF3F521
:1011E000056130BD0010024000127A0000093D0088
:1011F000600B0020700B002070B50546072D01D054
:101200002E4805702D48007808284ED2DFE800F0FF
:1012100004111A202B384E4F2948006828B900F0D5
:1012200053F806202549087002E00520234908707C
:1012300041E000F049F804202049087001202049CD
:10124000086038E002201D4948700320087032E031
:101250001A484078401E194948700846407808B935
:101260000420087027E01748006884B244F0100496
:10127000144804600520114908700A2048701AE0DB
:101280000E484078401E0D4948700846407858B9CD
:101290000C48006884B224F010040A480460062058
:1012A000087000200649086005E000BF00BF062066
:1012B0000249087000BF00BF70BD0000810C002013
:1012C000840C0020405C004010B50748006884B2E0
:1012D00024F0040404480460FFF754FD4FF43F4039
:1012E0000149086010BD0000405C004010B50024BA
:1012F00013480068052822D112480078F8B912492D
:101300000868411C104A1160052818D100201146B8
:10131000086040210D4801F011F884B2002C0EDD68
:101320002246C021094801F017F82146012000F0AB
:10133000C3F8012000F0EEF801200249087010BD4A
:101340007C0C00209C0B0020A00B00200819002022
:10135000704700004FF6F8710140014A1160704774
:10136000505C004030B501460F4B1A78002014E065
:1013700003060E4C04EB9353D3F8003C48F68F74ED
:10138000234048F280042343C4B223430406074D9C
:1013900005EB9454C4F8003C401C9042E8D341F063
:1013A0008003034C236030BDF40B0020005000404C
:1013B0004C5C004010B54A105300054A126892B2C6
:1013C00002EBC002121D034C44F8123010BD0000A5
:1013D000505C00400060004010B502460F480068B5
:1013E00080B200EBC200801D0D4C04EB40033E298F
:1013F0000BDD481101F01F040CB9441EA0B24FF4DC
:10140000004444EA80241C6007E0481001F0010415
:101410000CB1441CA0B284021C6010BD505C0040A2
:101420000060004030B50E4C04EB8003D3F8003C64
:101430004BF68F7403EA040201F480530BB182F47B
:10144000805201F400530BB182F4005242F4004385
:1014500043F08003024D05EB8004C4F8003C30BD2E
:101460000050004010B50B4B03EB8002D2F8002C6B
:101470004BF68F7302EA030181F4805181F400512D
:1014800041F4004242F08002024C04EB8003C3F8B6
:10149000002C10BD0050004010B54A105200044B03
:1014A0001B689BB203EBC003024C44F8132010BD31
:1014B000505C004000600040044A126892B202EBA7
:1014C000C002921C024B43F812107047505C00405F
:1014D0000060004030B50E4C04EB8003D3F8003CB4
:1014E00048F6BF7403EA040201F010030BB182F066
:1014F000100201F020030BB182F0200242F40043FD
:1015000043F08003024D05EB8004C4F8003C30BD7D
:101510000050004010B50B4B03EB8002D2F8002CBA
:1015200048F6BF7302EA030181F0100181F0200147
:1015300041F4004242F08002024C04EB8003C3F805
:10154000002C10BD0050004010B5074B03EB80028B
:10155000D2F8002C48F68F131A400A43024C04EBD1
:101560008003C3F8002C10BD0050004010B500F0FF
:1015700001F810BD0CB500200190009033480068C0
:1015800040F480303149086000BF3048006800F402
:10159000003000900198401C0190009818B9019803
:1015A000B0F5A06FF1D12948006800F4003010B107
:1015B0000120009001E0002000900098012843D114
:1015C0002348006840F01000214908600846006880
:1015D00020F0030008600846006840F00200086040
:1015E0001A484068194948600846406848600846FB
:1015F000406840F4806048600846406820F47C10F1
:1016000048600846406840F4E810486008460068B2
:1016100040F08070086000BF0C48006800F0007067
:101620000028F9D00948406820F0030007494860C5
:101630000846406840F00200486000BF0348406828
:1016400000F00C000828F9D10CBD00000010024089
:101650000020024038B501242948006880B2001DEE
:10166000284931F8100080B201EB40000090264874
:101670000068007A092832D0009800782249096869
:1016800008700098401C0090009800781E49096876
:1016900048700098401C0090009800EB44000090B7
:1016A000009931F8020B0091FEF7A1FD1649096877
:1016B0004880009800EB44000090009931F8020B3C
:1016C0000091FEF794FD104909688880009800EBAE
:1016D00044000090009800880B490968C8800120E8
:1016E00009490968087208480068C08810B9FFF7FE
:1016F0009FFB01E0FEF7CEFFFFF774FC38BD000052
:10170000505C004000600040900C00202DE9F04744
:1017100054480068007800F07F08B8F1000F0AD143
:1017200050480068407A00F0DF004E49096848726E
:101730000020BDE8F087B8F1020F7CD1494800686D
:10174000408818B947480068007908B10220F0E7DE
:10175000DFF8149143480068477927F080052C464C
:1017600040480068407900F0800038B13F4901EB03
:101770008400D0F8000C00F0300606E03B4901EB95
:101780008400D0F8000C00F4405699F80000A842FC
:1017900004D91EB133480068807A08B90220C8E72E
:1017A00007F0800080B1314901EB8400D0F8000CD3
:1017B00000F0300010284BD1E0B2FEF77DFEE0B221
:1017C0003021FFF787FE43E0284901EB8400D0F881
:1017D000000C00F44050B0F5805F39D1E4B9244AE0
:1017E00092F82C10E0B2FFF7F7FD204A02EB8401DB
:1017F000D1F8001C4BF68F7201EA020080F4805091
:1018000080F4005040F4004141F08001174B03EB9D
:101810008402C2F8001C1BE0E0B2FEF733FE134A5C
:1018200002EB8401D1F8001C4BF68F7201EA020032
:1018300080F4805000E011E080F4005040F400415A
:1018400041F08001094B03EB8402C2F8001C00BF89
:10185000084909684869804700206AE700BF0220FC
:1018600067E70000900C0020F40B002000500040BF
:10187000F80B00209C0C002010B504462CB9012068
:10188000064909680882002010BD054909680868F2
:101890008047024800680A30F6E70000900C0020FC
:1018A0009C0C002010B5024606480068438A32B9F5
:1018B0008888C01A034C24682082002010BD086864
:1018C0001844FBE7900C002010B504462CB9012009
:1018D000064909680882002010BD05490968886822
:1018E0008047024800680C30F6E70000900C0020AA
:1018F0009C0C002010B504462CB902203949096817
:101900000882002010BD0020374908803548006853
:10191000007800F07F0018BB32490968487A00F06F
:10192000200131B13049097841F002012E4A11708D
:1019300005E02D49097801F0FD012B4A117000F0F6
:10194000400131B12849097841F00101264A11705E
:1019500005E02549097801F0FE01234A11703AE0BB
:1019600020480068007800F07F00012801D11E485F
:10197000C8E71C480068007800F07F00022828D1E2
:10198000184A1268517901F00F0001F080027AB113
:10199000164B03EB8002D2F8002C02F03002102A22
:1019A00016D1114A127842F001020F4B1A700FE063
:1019B0000E4B03EB8002D2F8002C02F44052B2F539
:1019C000805F05D1084A127842F00102064B1A7076
:1019D00001E0002096E70649096808698047024847
:1019E00090E70000900C0020880C00200050004080
:1019F0009C0C002010B50E480068C0780D4949784D
:101A0000884213DC0A480068807878B90848006882
:101A1000808858B906480068C07805490968887206
:101A20000549096848688047002010BD0220FCE78E
:101A3000900C0020F40B00209C0C002010B50748EF
:101A40000068407A40F0200004490968487204495F
:101A50000968C8698047002010BD0000900C002074
:101A60009C0C00202DE9F0412E480068467926F0B4
:101A700080073C462B480068407900F0800038B170
:101A8000294901EB8400D0F8000C00F0300506E095
:101A9000254901EB8400D0F8000C00F440552348A0
:101AA0000078A04208D91F480068408820B91DB1BD
:101AB0001C480068807A10B90220BDE8F08106F069
:101AC0008000A0B1184A02EB8401D1F8001C48F64E
:101AD000BF7201EA020080F0100040F4004141F0C2
:101AE0008001114B03EB8402C2F8001C14E00E4A83
:101AF00002EB8401D1F8001C4BF68F7201EA020060
:101B000080F4805040F4004141F08001064B03EB2B
:101B10008402C2F8001C00BF054909688869804733
:101B20000020CAE7900C002000500040F40B002079
:101B30009C0C002010B5174B1B68D978154B1B68FF
:101B40005879154B1B689A699047044611480068FC
:101B5000807AE8B13CB90F480068007918B90D489F
:101B60000068807808B1022010BD8CB90B49096863
:101B7000C868804707480068407906490968C87204
:101B800004480068C0780349096808730020EBE73F
:101B90000220E9E7900C0020940C00209C0C00200F
:101BA00038B50021002200230093394B1B6898B2FE
:101BB00000BF09E0374C04EB8103D3F8003C9BB233
:101BC000354C44F82130491C0829F3D340F4806097
:101BD0002F4B186040F00100186020F001001860E1
:101BE00000BF2B4B1B1D1B6803F48063002BF8D038
:101BF0004FF6FF33264C241D2360002109E0264BBD
:101C000053F821309BB2234D05EB8104C4F8003C0E
:101C1000491C0829F3D340F008001D4B18601B68CD
:101C200098B240F004001A4B18601C4B1B680093DC
:101C30001A4B1A6822F0030242F001021A60184B94
:101C40001B6843F00403164C2360114B1B1D1B68DB
:101C500003F480532BB923461B6823F0040323604D
:101C600014E04EF6FF730A4C241D2360231F1B68EB
:101C700098B220F00800231F1860084C009B2360D6
:101C8000074B1B6823F00403054C236038BD00009C
:101C9000405C004000500040881900200070004067
:101CA00010ED00E00120054908700548007820B1DA
:101CB00003480078401E024908707047520B00200C
:101CC000530B002038B504460D4600204FF0E021AC
:101CD000886105FB04F000EB4001C1EBC0104FF040
:101CE000E021486103200861E11704EB5171C1F361
:101CF000C701114A11701046007800EB4001C1EB9A
:101D0000C0104FF6FF7101EAC0000C4908804FF483
:101D1000C060FFF783F8FF208DF8000003208DF8E6
:101D2000010000208DF8020001208DF803006846B4
:101D3000FFF73CF838BD00004E0B0020500B002090
:101D400010B51348006840F00100114908600846CA
:101D50004068104908400E494860084600680E492E
:101D600008400B4908600846006820F4802008609D
:101D70000846406820F4FE0048604FF41F00886069
:101D8000FFF7F4FB4FF000600449086010BD00004D
:101D9000001002400000FFF8FFFFF6FE08ED00E033
:101DA00010B540F227711C4800F0C8F8E0B11B489C
:101DB00002780078401C194B18701948815C16484D
:101DC00000F07DF91548007816490978884205D158
:101DD000002240F22771104800F0DAF840F2277133
:101DE0000D4800F090F810E040F225510A4800F04C
:101DF000A5F850B10849091D0988C8B2FEF78AFB49
:101E000040F22551044800F07EF84FF45871024822
:101E100000F079F810BD000000380140540B00209C
:101E2000D60C0020550B002010B540F225512A4851
:101E300000F084F8A8B1284800F03CF92749284A66
:101E40001268885426480068401C254908600846E6
:101E50000068022805D1012022490870002020498D
:101E6000086040F227711C4800F068F8E0B11E4895
:101E700002780078401C1C4B18701C48815C164886
:101E800000F01DF940F22771134800F03CF81648A5
:101E9000007817490978884217D1002240F227714B
:101EA0000D4800F075F810E040F225510A4800F0A6
:101EB00045F850B10849091D0988C8B2FEF72BFB47
:101EC00040F22551044800F01EF84FF458710248C2
:101ED00000F019F810BD000000440040CC0C0020B8
:101EE0005C0B00204C0B0020580B0020D60D00206E
:101EF000590B002001F40072B2F5007F00D100BF41
:101F0000CA430280704710B50022002340F66A14CD
:101F1000A14200D100BF0A1201249440A3B2DC43C5
:101F2000048010BD21B1828942F40052828104E014
:101F300082894DF6FF731A408281704770B5024660
:101F4000002400230025002040F66A16B14200D18B
:101F500000BFC1F3421501F01F03012606FA03F387
:101F6000012D02D19689334006E0022D02D1168A56
:101F7000334001E0968A33400C12012606FA04F43D
:101F80001688344013B10CB1012000E0002070BD70
:101F9000F0B50346002400260025002040F66A170D
:101FA000B94200D100BF1846C1F3421401F01F0628
:101FB000012707FA06F5012C01D10C3004E0022CB0
:101FC00001D1103000E014301AB107682F430760C8
:101FD00002E00768AF430760F0BD00002DE9F0475D
:101FE00086B005460E460024A24600BFA146002743
:101FF000B08900B100BF2F462C8A4CF6FF70044018
:10200000F08804432C82AC894EF6F3100440B0886B
:1020100031890843718908430443AC81AC8A4FF687
:10202000FF400440B0890443AC8201A8FFF77AF86E
:102030001F48874202D1DDF810A001E0DDF80CA0B6
:10204000A88900F4004040B10AEBCA0000EB0A1076
:1020500031684900B0FBF1F807E00AEBCA0000EB79
:102060000A1031688900B0FBF1F86420B8FBF0F089
:1020700004012009642101FB1089A88900F40040B3
:1020800040B1322000EBC900B0FBF1F000F00700D6
:10209000044308E0322000EB09106421B0FBF1F0AA
:1020A00000F00F0004432C8106B0BDE8F08700006B
:1020B0000038014001468888C0F308007047C1F32A
:1020C00008028280704710B54FF48020FEF768FC4C
:1020D00010BD000010B504462CB94FF4006105484E
:1020E000FEF7EFFC04E04FF400610248FEF7EBFC62
:1020F00010BD00000020014010B588B000246948E0
:102100000068694908800846008800F40070674943
:102110000988084050B14FF6FF5062490860644892
:102120000078401C62490870FFF7E0F85E480088BC
:1021300000F400405D490988084008B1FEF75EF8E8
:102140005948008800F4806058490988084030B137
:102150004FF6FF3053490860564948688047524857
:10216000008800F4005051490988084018B14DF624
:10217000FF704C4908604C48008800F480504B497F
:102180000988084030B14EF6FF70464908600020CB
:10219000FFF732F84448008800F40060434909889A
:1021A000084060B14448007810B1FFF7F9FC02E044
:1021B0000220FFF721F84FF2FF703A4908603A48D1
:1021C000008800F48070394909880840002866D0EA
:1021D0004FF6FF6033490860081D006800F40040B6
:1021E000002856D035480068401C3449086008462D
:1021F0000068032850D92B48001F006800F0080031
:10220000002849D12748001F006880B22C49086087
:10221000002408E02B4901EB8400D0F8000C80B2C8
:102220004DF82400641C082CF4D32548006840F0C5
:102230000100234908600846006880B21949091F57
:1022400008601F48006820F001001D49086008462A
:10225000006880B21349091F086000BF1148006878
:1022600000F480600028F9D04FF6FF300D49086077
:10227000002408E05DF8240080B2124A02EB8401D9
:10228000C1F8000C641C082CF4D300200B49086032
:1022900002E00020094908600720FEF7ADFF08B002
:1022A00010BD0000445C0040A40B00209A0C0020EC
:1022B000A60B0020F80B0020800C0020A80B0020AB
:1022C000AC0B00200050004010B5FFF715FF10BD0B
:1022D00070B504460D462A4621460248FEF7C6FE62
:1022E00070BD0000E80E00200020064908604FF491
:1022F0003F4005490880084600880249091F0860D8
:1023000000207047445C00409A0C00202DE9F04109
:1023100004460E46002504F07F00FEF7E7FB054665
:1023200004F07F00FEF7D2FB07462A4639463046C6
:10233000FEF742FE2846BDE8F081000070B5044675
:102340000D462A4621460248FEF7AEFE70BD00004B
:10235000F80E002000BFFEE7F0B5144604F1010CB2
:102360004FEA6C07DFF824C00CEB41033D460AE05E
:102370000678401C90F800C046EA0C2223F8022B95
:102380009B1C401C6D1E002DF2D1F0BD0060004072
:1023900070B504460025212C08D112480068007849
:1023A00000F07F0021280ED10F4D0CE0202C0AD127
:1023B0000C480068007800F07F00212800D10B4D08
:1023C00020200B4908700DB9022070BD0548006837
:1023D000856100210348006841820020A847002051
:1023E000F3E70000900C00201D240008AD25000834
:1023F000E80B002010B5044602492046FFF752FAC8
:1024000010BD0000540C002010B5044602492046BF
:10241000FFF748FA10BD00004C0C0020014629B916
:102420000820034A12681082002070470148FCE728
:10243000900C0020EC0B002070B5054606480068A3
:10244000C478042C01DD002070BD044800EBC401F9
:102450002846FFF727FAF7E7900C00205C0C0020D5
:102460000246002901DD02207047012A01DD022019
:10247000FAE70020F8E70000014608480068007805
:1024800000F07F00212807D1022901D100207047E8
:10249000222901D10020FAE70220F8E7900C002061
:1024A00010B500203449096888723448C07932492F
:1024B00009684872002030490968C872FEF74AFF6F
:1024C0004FF400710020FFF73FF810210020FFF7C4
:1024D00001F840210020FEF76DFF80210020FEF76B
:1024E000DBFF0020FEF702F8254890F82C100020B2
:1024F000FEF772FF0020FEF7B5FF00210120FFF775
:1025000023F8C0210120FEF7C7FF20210120FEF79C
:10251000E1FF00210120FEF785FF4FF4C06102209A
:10252000FFF712F84FF480710220FEF7B5FF00218B
:102530000220FEF777FF20210220FEF7CBFF0021CB
:102540000320FFF701F84FF488710320FEF732FFF4
:1025500040210320FEF740FF4FF440510320FEF7D7
:1025600061FF00210320FEF7B5FF0020FEF7FAFE11
:1025700001200449086010BD900C002012290008B9
:10258000F80B00207C0C00200348817A11B1052152
:10259000024A116070470000A81900207C0C00203E
:1025A00004200149086070477C0C0020014629B9CD
:1025B0000820034A12681082002070470148FCE797
:1025C000900C0020EC0B002003480078202802D15A
:1025D0000020014908707047E80B00207047000098
:1025E00010B5FEF7A5FA0020054909688872FEF7C4
:1025F0001DFDFFF779FE00200249086010BD0000B4
:10260000900C00207C0C002002E008C8121F08C1BA
:10261000002AFAD170477047002001E001C1121F63
:10262000002AFBD17047000030B503464FF0E0248C
:10263000A169254C248803FB04F200204FF0E0241C
:102640006469B2FBF4F4214D2C704FF0E02464690E
:10265000B2FBF4F504FB1520814215D9081A00BF1E
:102660001A4C2478002CFBD10A2806D200BF4FF068
:10267000E024A4690A2CFAD824E000BF4FF0E0243B
:10268000A4698442FAD81DE0104C2478641C0F4DD4
:102690002C704FF0E02464690C44201A00BF0B4CEE
:1026A0002478002CFBD10A2806D200BF4FF0E0248A
:1026B000A4690A2CFAD805E000BF4FF0E024A46911
:1026C0008442FAD830BD0000500B0020530B00208C
:1026D00010B5622000F0D0F8622000F04BF810BD79
:1026E00008B5012144F20800FEF70CFD4FF400602C
:1026F000ADF8000010208DF8030003208DF80200D3
:1027000069461B48FEF752F94FF48060ADF80000AF
:1027100069461748FEF74AF90220ADF800006946FD
:102720001348FEF743F90120ADF800006946104850
:10273000FEF73CF90820ADF8000069460C48FEF7AA
:1027400035F91020ADF8000069460948FEF72EF96A
:102750002020ADF8000069460548FEF727F9402023
:10276000ADF8000069460248FEF720F908BD0000F8
:10277000000C014010B50446672C08D102210F4817
:10278000FEF7A1F901210D48FEF79BF914E0622C38
:1027900008D101210948FEF796F902210748FEF702
:1027A00090F909E0732C07D102210448FEF78BF958
:1027B00001210248FEF787F910BD0000000C01401E
:1027C00000BF00BF00BF00BF00BF0A214820FFF7C5
:1027D00079FA4FF41650FEF7FFF94FF47A70FFF7CD
:1027E00023FF4FF41650FEF753FA41F28830FFF7FB
:1027F0001BFFFFF775FF30E040211848FEF763F933
:1028000020211648FEF75DF915480078012820D1EF
:1028100000201349087013480078772801D100F090
:1028200023F810480078732801D1FFF751FF0D48B5
:102830000078612801D100F05BF80A48007864282C
:1028400001D100F04DF807480078742801D100F05C
:102850003FF84FF4FA70FFF7E7FECDE7000C0140B8
:102860004C0B0020CC0C002010B5672000F004F8C1
:102870006720FFF77FFF10BD10B50446672C0AD113
:102880004FF400611148FEF71EF94FF480610F48C4
:10289000FEF717F918E0622C0AD14FF480610B485B
:1028A000FEF711F94FF400610848FEF70AF90BE052
:1028B000732C09D14FF480610448FEF704F94FF4FA
:1028C00000610248FEF7FFF810BD0000000C014057
:1028D00010B57320FFF7D0FF7320FFF74BFF10BD3B
:1028E00010B56720FFF7C8FF6220FFF743FF10BD58
:1028F00010B56220FFF7C0FF6720FFF73BFF10BD58
:10290000120100020200004083044057000201024D
:10291000030109024300020100C032090400000162
:102920000202010005240010010524010001042415
:1029300002020524060001070582030800FF0904BE
:102940000100020A0000000705030240000007051D
:102950008102400000040309041803480069006B69
:102960000065007200200073007500640069006F4C
:102970000026035600690072007400750061006C47
:1029800000200043004F004D00200050006F0072F7
:102990000074002000200000B8290008000000207A
:1029A000A40C00008C010008582D0008A40C002085
:1029B0002411000018260008200CFF01000100FF70
:1029C0000200DC050001110FC2020FC2030FC20496
:1029D0000FC2050FC2060FC2070FC2080FC2090FB0
:1029E000C20A0FC20B0FC20C0FC20D0FC20E0FC2D4
:1029F0000F0FC2100FC2110FC2120FC2130FC61455
:102A00001D352CB7F4012C810FC2030FC2040FC275
:102A1000050FC2060FC2070FC2080FC2090FC20A74
:102A20000FC20B0FC20C0FC20D0FC20E0FC20F0F41
:102A3000C2100FC2110FC2120FC2130FB2140F2611
:102A4000012C76014AC301020FC2030FC2040FC258
:102A5000050FC2060FC2070FC2080FC2090FC20A34
:102A60000FC20B0FC20C0FC20D0FC20E0FC20F0F01
:102A7000C2100FC2110FC2120FC2130FC6141D35A0
:102A80002C853BC2020FC2030FC2040FC2050FC246
:102A9000060FC2070FC2080FC2090FC20A0FC20BEE
:102AA0000FC20C0FC20D0FC20E0FC20F0FC2100FBC
:102AB000C2110FC2120FC2130FB2140F26022C76CE
:102AC000024AC302020FC2030FC2040FC2050FC2A3
:102AD000060FC2070FC2080FC2090FC20A0FC20BAE
:102AE0000FC20C0FC20D0FC20E0FC20F0FC2100F7C
:102AF000C2110FC2120FC2130FC6141D352C853B15
:102B0000C2020FC2030FC2040FC2050FC2060FC2DA
:102B1000070FC2080FC2090FC20A0FC20B0FC20C67
:102B20000FC20D0FC20E0FC20F0FC2100FC2110F36
:102B3000C2120FC2130FB2140F2203A576034AC3A9
:102B400003140F311E812DB2140F22041E72043C97
:102B5000C304140F311E812DB2140F22051E7205FD
:102B60003CC305140F311E812DB2140F22061E72B4
:102B7000063CC306140F311E812DB2140F22071E0E
:102B800072073CC307140F311E812DB2140F2208A7
:102B90001E72083CC308140F311E812DB2140F227F
:102BA000091E72093CC309140F311E812DB2140F86
:102BB000220A1E720A3CC30A140F311E812DB21460
:102BC0000F220B1E720B3CC30B140F311E812DB252
:102BD000140F220C1E720C3CC30C140F311E812DDD
:102BE000B2140F220D1E720D3CC30D140F311E8145
:102BF0002DB2140F220E1E720E3CC30E140F311E86
:102C0000812DB2140F220F1E720F3CC30F140F310F
:102C10001E812DA2140F4209051D3D042E09E30853
:102C20002E09D9082E09CF082E09C5082E09BB0880
:102C30002E09B1082E09A7082E099D082E09930810
:102C40002E0989082E097F082E0975082E096B08A0
:102C50001E098D091C0D5A4A53545A5A595A514A41
:102C60004B531803432C06667302060A5304C8A785
:102C70007302060A91148128813C812861E38D4505
:102C8000038DC1098D730760050200C00314632022
:102C9000082863C6042862F1647D4D058D0D047318
:102CA00002023C72033C72023C52033C0116011DBD
:102CB00069052204041020060708090204060826F4
:102CC000035600690072007400750061006C0020FA
:102CD0000043004F004D08300450006F18122002CE
:102CE00001144C163174031CAB0D04021181243DF8
:102CF000C10A26C2E0100408000407100AE12500FA
:102D000008A1240008C90812DD0C10069123000850
:102D1000791012610412091812F51043392438127F
:102D2000403B2148031889257812A1441006002948
:102D3000000812A41212081243341255102524124E
:102D4000591012184412711812264C6406740B00A4
:082D500020261C0220000100F6
:0400000508000131BD
:00000001FF
